:10000000BDC00000D7C00000D5C00000D3C00000B4
:10001000D1C00000CFC00000CDC00000CBC00000A8
:10002000C9C00000C7C00000C5C0000038C500003E
:10003000C1C00000BFC00000BDC00000BBC00000C8
:10004000B9C00000B7C00000B5C00000B3C00000D8
:10005000B1C00000AFC00000ADC00000ABC00000E8
:10006000A9C00000A7C00000A5C00000A3C00000F8
:10007000A1C0000018063A0621073A0621077F06AC
:10008000A1062107F306050718034C006100640070
:100090006F00730068006B006900200034003400BA
:1000A00000000E03690062006E00540065006F00DE
:1000B00000000403090409023B00020100C03209E8
:1000C0000400000103010100092111010001223F88
:1000D000000705810308000509040100010301026E
:1000E00000092111010001223A00070583030800DD
:1000F000051201100100000008EB034D2001000172
:1001000002000105010906A101050719E029E7150B
:100110000025017501950881029501750881010589
:10012000081901290595057501910295017503913D
:1001300001150025FF0507190029FF95067508819F
:1001400000C005010902A1010901A1000509190169
:100150002903150025019503750181029501750597
:10016000810105010930093116FFFF26010036FF24
:10017000FF460100950275088106C0C011241FBE0C
:10018000CFEFD2E0DEBFCDBF11E0A0E0B1E0E4E010
:10019000F3E102C005900D92A234B107D9F721E036
:1001A000A2E4B1E001C01D92AE35B207E1F7CED1B5
:1001B0000C94800925CF84B18D6084B985B18D60A0
:1001C00085B987B1806787B988B1806788B98AB1F6
:1001D00083668AB98BB183668BB984B18D7E84B90D
:1001E00085B1826185B987B18B7E87B988B1846119
:1001F00088B954985C9A08955E9808955E9A089517
:100200008111FACFFBCF109242011092430110925C
:10021000440110924501289885E08A95F1F7000085
:10022000329905C0809142018260809342014C99CD
:1002300005C080914301826080934301199905C0F4
:1002400080914201816080934201289A599895E0FB
:100250009A95F1F70000329905C0809142018460BF
:10026000809342014C9905C0809143018460809342
:100270004301199905C08091430181608093430136
:10028000599A5D9885E08A95F1F70000329905C08A
:10029000809142018860809342014C9905C0809111
:1002A00043018860809343015D9A589895E09A9540
:1002B000F1F70000329905C080914201806180937E
:1002C00042014C9905C080914301806180934301B4
:1002D000589A2A9885E08A95F1F70000349905C06C
:1002E000809144018260809344011C9905C08091F3
:1002F0004501826080934501199905C080914401B0
:100300008160809344012A9A469895E09A95F1F786
:100310000000349905C080914401846080934401B9
:100320001C9905C08091450184608093450119990D
:1003300005C080914501816080934501469A4598AA
:1003400085E08A95F1F70000349905C08091440159
:100350008860809344011C9905C0809145018860A4
:1003600080934501459A2B9895E09A95F1F7000006
:10037000349905C0809144018061809344011C99A7
:1003800005C0809145018061809345012B9A8FE1E2
:100390009EE40197F1F700C000000895E1E6F0E067
:1003A00080E88083108284B7877F84BF0FB6F8947B
:1003B000A895809160008861809360001092600031
:1003C0000FBE90E080E80FB6F894809361009093A0
:1003D00061000FBEF0DE54C308950895CF9381E30A
:1003E00091E096D6C82F81E291E092D6E2EEF0E05D
:1003F0009081946090838C2391E08927CF9100CFE6
:1004000081E391E051D581E291E04EC580913F01B9
:1004100090914001009729F00197909340018093BB
:100420003F0180912F0190913001009729F00197B1
:100430009093300180932F010895CF92DF92EF9235
:10044000FF920F931F93CF93DF938153914009F055
:100450006DC07901D0914201C0914301C090440127
:10046000D0904501D0DE909142019D1720F08091FF
:1004700043018C17F8F480910101882311F1109247
:100480000101DD2349F0ED2FF0E0EF5FFE4F8081A9
:10049000F701828381E001C080E0CC2399F0EC2F4A
:1004A000F0E0EF5FFE4F9081F701E80FF11D9283BE
:1004B0008F5F08C0D91710F0C81718F481E0809337
:1004C000010180E0209144012C1520F0909145011C
:1004D0009D15F0F490910001992309F1109200010B
:1004E000CC2051F0EC2DF0E0EF5FFE4F9081F70152
:1004F000E80FF11D92838F5FDD2089F0AD2DB0E014
:10050000AF5FBE4F9C91F701E80FF11D928307C0CA
:10051000C21610F0D91618F481E08093000188E02B
:1005200090E0F8019183808380E006C083E090E052
:10053000F8019183808381E0DF91CF911F910F912A
:10054000FF90EF90DF90CF900895089527DF789483
:1005500081E391E0F0D581E291E0EDD58BD4F8CF45
:10056000292F332723303105C1F05CF421303105C8
:1005700079F022303105A1F58BE390E026EB30E0F5
:100580003BC021323105F1F02232310511F128C092
:1005900082E190E021EF30E02FC099278130910572
:1005A00041F08230910541F0892BD1F4E2EBF0E08B
:1005B00005C0E2EAF0E002C0E8E8F0E0849190E0F3
:1005C0009F011AC089E090E0662379F021EE30E0C7
:1005D00013C0662369F08AE390E022E431E00CC0A6
:1005E00080E090E020E030E007C028EC30E004C07C
:1005F0008FE390E023E031E0FA0131832083089516
:10060000CF92DF92EF92FF920F931F93CF93DF93DE
:10061000EC018B017A01C9D1811133C0E114F104DD
:1006200039F0F70180819181081B190BC80FD91F80
:10063000C12CD12C0115110519F18091E80085FD1F
:1006400016C08091E8008E778093E80013D4E114FF
:10065000F10449F0F70180819181C80ED91ED18241
:10066000C08285E00EC0A1D1882321F30AC0899100
:100670008093F10001501109FFEFCF1ADF0ADACFA2
:1006800080E0DF91CF911F910F91FF90EF90DF906D
:10069000CF90089520915C0130915D0126173707B6
:1006A00048F06115710539F42091E8002E77209308
:1006B000E80001C0B90140E06115710581F12091A8
:1006C00055012223E9F12530E9F12091E80023FDCD
:1006D00035C02091E80022FD2BC02091E80020FFCA
:1006E000EBCF2091F20030E0FC01CF0161157105E4
:1006F00059F02830310540F481918093F100615028
:1007000071092F5F3F4FF1CF41E02830310509F0EB
:1007100040E02091E8002E772093E800CDCF4111F2
:10072000CECF06C080915501882351F0853051F01D
:100730008091E80082FFF6CF80E0089581E008957F
:1007400082E0089583E008956115710529F42091F0
:10075000E8002B772093E800FC016115710521F179
:1007600080915501882341F1853041F18091E80065
:1007700083FD20C08091E80082FFEFCF8091F200DE
:10078000882331F08091F100819361507109B1F7B4
:100790008091E8008B778093E800DFCF809155014E
:1007A000882351F0853051F08091E80080FFF6CF2A
:1007B00080E0089581E0089582E0089583E008953F
:1007C00020915C0130915D012617370748F06115D3
:1007D000710539F42091E8002E772093E80001C0DC
:1007E000B901FC0120E06115710569F180915501A5
:1007F0008823D1F18530D1F18091E80083FD32C0AA
:100800008091E80082FD28C08091E80080FFEBCF56
:100810008091F20090E06115710559F088309105E2
:1008200040F424912093F1003196615071090196B2
:10083000F2CF21E0089709F020E08091E8008E7760
:100840008093E800D0CF2111D1CF06C0809155010F
:10085000882351F0853051F08091E80082FFF6CF77
:1008600080E0089581E0089582E0089583E008958E
:10087000982F953058F59093E900981739F07091BA
:10088000EC002091ED005091F00003C0242F762F52
:1008900050E021FF19C03091EB003E7F3093EB0018
:1008A0003091ED003D7F3093ED003091EB003160F1
:1008B0003093EB007093EC002093ED005093F00028
:1008C0002091EE0027FF07C09F5FD3CF8F708093EA
:1008D000E90081E0089580E00895EF92FF920F9380
:1008E0001F93CF93DF93E62EEC018C010C5F1F4F1B
:1008F000F12CFE1499F19881992359F1F801208186
:1009000069817A8131973081892F8F70853010F01D
:1009100080E025C0223010F442E001C046E0E8E06B
:10092000F0E020E0E617F70720F42F5FEE0FFF1F3F
:10093000F9CF2295207F422B232F2295220F220FC1
:10094000207C991F9927991F622F692B91DF88239B
:10095000F9F2F39425960B5F1F4FCBCF81E0DF9127
:10096000CF911F910F91FF90EF90089580915601C4
:1009700087FF11C08091E80082FD05C0809155017C
:100980008111F8CF11C08091E8008B770BC0809166
:100990005501882349F08091E80080FFF8CF8091CD
:1009A000E8008E778093E80008952091E40030916C
:1009B000E50095E64091EC00842F817040FF22C055
:1009C0008091E80080FD1CC080915501882391F042
:1009D000853091F08091EB0085FD10C04091E400DE
:1009E0005091E5004217530729F39A01915011F7EE
:1009F00084E0089582E0089583E0089581E00895F9
:100A000080E008954091E80042FFDECF089541D094
:100A100043D08091D8008F778093D8008091D80000
:100A200080688093D8008091D8008F7D8093D80013
:100A300084E089BD86E089BD09B400FEFDCF109237
:100A4000550110925101109253011092520142E04F
:100A500060E080E00DDF8091E1008E7F8093E10017
:100A60008091E20081608093E2008091E2008860E2
:100A70008093E2008091E0008E7F8093E0000895F3
:100A8000E3E6F0E080818E7F808381E080935401F3
:100A9000BECF1092E20008951092E10008951F92D7
:100AA0000F920FB60F9211242F933F934F935F93A2
:100AB0006F937F938F939F93AF93BF93EF93FF9326
:100AC0008091E10082FF0AC08091E20082FF06C0AF
:100AD0008091E1008B7F8093E10098DC8091E100C0
:100AE00080FF17C08091E20080FF13C08091E20078
:100AF0008E7F8093E2008091E20080618093E2002B
:100B00008091D80080628093D80019BC1092550162
:100B100064DC8091E10084FF2DC08091E20084FFBD
:100B200029C084E089BD86E089BD09B400FEFDCFFF
:100B30008091D8008F7D8093D8008091E1008F7ED6
:100B40008093E1008091E2008F7E8093E2008091AB
:100B5000E20081608093E20080915101811106C022
:100B60008091E30087FD02C081E001C084E08093B2
:100B7000550132DC8091E10083FF22C08091E200C8
:100B800083FF1EC08091E100877F8093E10082E0B7
:100B900080935501109251018091E1008E7F8093E6
:100BA000E1008091E2008E7F8093E2008091E2007C
:100BB00080618093E20042E060E080E059DE59D13C
:100BC000FF91EF91BF91AF919F918F917F916F9125
:100BD0005F914F913F912F910F900FBE0F901F90FB
:100BE00018951F93CF93DF93CDB7DEB7AA970FB6B3
:100BF000F894DEBF0FBECDBFE6E5F1E088E08E0FD2
:100C00009091F10091938E13FBCFFADB8091E80075
:100C100083FF17C18091560190915701492F50E0F1
:100C20004A30510508F00DC1FA01E65CFF4F45C39B
:100C3000803881F0823809F004C180915A018F70A8
:100C40008093E9008091EB0085FB882780F9109262
:100C5000E90006C080915201909153019111826088
:100C60009091E800977F9093E8008093F1001092B4
:100C7000F100C4C0282F2D7F09F0E3C0882319F0AC
:100C8000823061F0DEC080915801813009F0D9C016
:100C9000933009F080E0809353012BC0809158017C
:100CA000811127C080915A018F7009F4CAC08093C6
:100CB000E9002091EB0020FF1CC0933021F48091CB
:100CC000EB00806214C09091EB0090619093EB0078
:100CD00021E030E0A90102C0440F551F8A95E2F7D8
:100CE0004093EA001092EA008091EB0088608093C4
:100CF000EB001092E9008091E800877F82C08111AB
:100D0000A0C0109158011F778091E3008078812B5B
:100D10008093E3008091E800877F8093E80026DEDF
:100D20008091E80080FFFCCF8091E3008068809391
:100D3000E300111102C082E001C083E080935501FD
:100D400080C08058823008F07CC08091580190911A
:100D500059018C3D53E0950771F583E08A838AE25F
:100D600089834FB7F894DE01139620E03EE051E20C
:100D7000E32FF0E050935700E49120FF03C0E29589
:100D8000EF703F5FEF708E2F90E0EA3010F0C79663
:100D900001C0C0968D939D932F5F243149F74FBFBB
:100DA0008091E800877F8093E8006AE270E0CE01DE
:100DB000019670DC12C0AE014F5F5F4F60915A0127
:100DC000CFDBBC01892B09F43CC09091E800977FF0
:100DD0009093E80089819A81F3DC8091E8008B7719
:100DE0008093E8002EC0803861F58091E800877F0D
:100DF0008093E800809151018093F1008091E80098
:100E00008E778093E800B2DD1CC081111AC09091EA
:100E100058019230B0F48091E800877F8093E80019
:100E200090935101A3DD80915101811106C0809101
:100E3000E30087FD02C081E001C084E0809355019A
:100E4000CDDA8091E80083FF0AC08091E800877FB7
:100E50008093E8008091EB0080628093EB00AA967B
:100E60000FB6F894DEBF0FBECDBFDF91CF911F91BB
:100E700008950895CF9380915501882399F0C091EA
:100E8000E900CF709091EC00892F817090FD80E88F
:100E9000C82B1092E9008091E80083FDA2DECF709C
:100EA000C093E900CF9108956F927F928F929F92A5
:100EB000AF92BF92CF92DF92EF92FF920F931F9368
:100EC000CF93DF9300D01F92CDB7DEB77C01CDB6B4
:100ED000DEB68091E80083FF04C1F701808190E0D5
:100EE00020915A0130915B012817390709F0F9C0A8
:100EF00080915701833009F49BC030F4813071F048
:100F0000823009F4D2C0EDC08A3009F4B6C08B300B
:100F100009F49FC0893009F0E4C04DC080915601AA
:100F2000813A09F0DEC08DB69EB61A821982809190
:100F30005801109159018B83F7018085482F50E0AB
:100F40008DB79EB7841B950B0FB6F8949EBF0FBE4E
:100F50008DBFEDB7FEB731965F0160E070E0CF0165
:100F6000C8D14FEF410F8E010F5F1F4F9501BE019A
:100F70006D5F7F4FC70161DAF70186819781009726
:100F800021F0408550E0B501ABD11092E90080918D
:100F9000E800877F8093E80069817A81C5017ADB68
:100FA0008091E8008B778093E8000FB6F8949EBE9E
:100FB0000FBE8DBE96C080915601813209F091C05E
:100FC000ADB6BEB600915C0110915D017090580104
:100FD000609059018DB79EB7801B910B0FB6F894A6
:100FE0009EBF0FBE8DBFEDB7FEB731964F0180910A
:100FF000E800877F8093E800B801CF01A5DB8091EE
:10100000E8008E778093E80021E0711001C020E0B5
:1010100030E0021B130B280D391D4FEF460D672DD5
:10102000C70193DA0FB6F894BEBE0FBEADBE59C06D
:1010300080915601813A09F054C08091E800877F81
:101040008093E8008091E80080FFFCCFF701818564
:1010500040C080915601813209F043C08091E80080
:10106000877F8093E80082DC9091580181E09111A4
:1010700001C080E0F701818734C080915601813240
:1010800081F58091E800877F8093E8006FDC809194
:10109000580190915901882736E0969587953A95A1
:1010A000E1F7F701958784871CC080915601813A4A
:1010B000C1F48091E800877F8093E8008091E80088
:1010C00080FFFCCFF7018485958596958795969549
:1010D00087958093F1008091E8008E778093E800F7
:1010E00045DC0FB6F894DEBE0FBECDBE0F900F905C
:1010F0000F90DF91CF911F910F91FF90EF90DF90B4
:10110000CF90BF90AF909F908F907F906F900895F9
:10111000FC01399627E0DF011D922A95E9F721E0CD
:10112000FC01218724EF31E03587248723E02483E5
:1011300061E00196D2CB4F925F926F927F928F9235
:101140009F92AF92BF92CF92DF92EF92FF920F9356
:101150001F93CF93DF9300D01F92CDB7DEB77C01F2
:10116000ADB6BEB680915501843009F08DC0809136
:10117000E4009091E500F7012285338528173907AF
:1011800009F482C081818F708093E9008091E8002A
:1011900085FF7AC08DB69EB6408550E08DB79EB76C
:1011A000841B950B0FB6F8949EBF0FBE8DBFEDB795
:1011B000FEB731966F011B821A82198260E070E0DF
:1011C000CF0197D08E010F5F1F4F960140E0BE0107
:1011D0006D5F7F4FC70131D9482EF7018485958512
:1011E000892B51F091E080E026853785232B09F08B
:1011F00090E0092F182F02C000E010E0F701668090
:1012000077806114710489F049815A81B301C60164
:101210005AD055245394892B09F4512CF701408559
:1012200050E0B601C3015CD001C0512C89819A8184
:10123000892BF1F0411004C0511002C0012BC1F004
:10124000F701848595859787868781818F70809344
:10125000E9008B8181118093F10069817A8140E0FE
:1012600050E0C601CDD98091E8008E778093E800E8
:101270008091E4009091E500F701938782870FB693
:10128000F8949EBE0FBE8DBE0FB6F894BEBE0FBEC4
:10129000ADBE0F900F900F90DF91CF911F910F91E6
:1012A000FF90EF90DF90CF90BF90AF909F908F9086
:1012B0007F906F905F904F900895EE0FFF1F059005
:1012C000F491E02D0994FB01DC0104C08D910190A3
:1012D000801921F441505040C8F7881B990B08959C
:1012E000FB01DC0102C001900D9241505040D8F743
:1012F0000895DC0101C06D9341505040E0F708951E
:04130000F894FFCF8F
:101304000101FF12042C11160F080C071317150BFB
:1013140018FFFF1A0D19050E1406101B1D090A1CCF
:10132400FF018308000001460103000000000000E3
:1013340000008108000001490108000000000000CD
:021344000000A7
:00000001FF
