:100000007AC1000095C1000093C1000091C10000B9
:100010008FC100008DC100008BC1000089C10000AC
:1000200087C1000085C100000C94BC0D81C1000097
:100030007FC100007DC100007BC1000079C10000CC
:1000400077C1000075C1000073C1000071C10000DC
:100050006FC100006DC100006BC1000069C10000EC
:1000600067C1000065C1000063C1000061C10000FC
:100070005FC100005DC100005BC1000059C100000C
:1000800057C1000055C1000053C1000051C100001C
:100090004FC100004DC100004BC1000049C100002C
:1000A00047C1000045C1000043C10000AB0ECD0EAA
:1000B000B50FCD0EB50F120F340FB50F860F980F79
:1000C0003702380236023803330323031E031E03AC
:1000D000330221033803240334031F03340234049E
:1000E0003502350426032603270327032F022F0496
:1000F0003002300436033605370337052D032D0350
:100100002F032F053003300521032105200320058F
:100110003503350522032205310331052303230569
:100120001F031F05310231022E022E023A3B3C3DD5
:100130003E3F4041424344454739531E1F20212240
:1001400023242526272E2D313837595A5B5C5D5ED6
:100150005F606162575655546300504A52E44B0049
:10016000514EE0002B0000004CE70000E6E10000EB
:1001700049000000000000004F00E3000000000004
:10018000E200E100000000004D000000000000005F
:10019000000000000000000017111606130A150BDE
:1001A00006151B2F0A18111C0E1B0F0E1D13070F0F
:1001B0000D14053610190B071A33141A0000190C08
:1001C000E1E1002000001C120000090400340000DE
:1001D0000000003000000C05120D04092C2C1C102E
:1001E0001808001D081700160035343718034B0097
:1001F0006C006100640065006E00650074007300AF
:100200003200330000000E034B006C0061007600EA
:100210007200670000000403090409023B000201A8
:1002200000C032090400000103010100092111018D
:100230000001223F000705810308000509040100B1
:100240000103010200092111010001224F000705ED
:1002500083030800051201100100000008EB034DA4
:100260002001000102000105010906A1010507198D
:10027000E029E715002501750195088102950175B2
:100280000881010508190129059505750191029557
:100290000175039101150025FF0507190029FF9538
:1002A0000675088100C005010902A1010901A1002C
:1002B000050919012903150025019503750181021E
:1002C0009501750581010501093009311680FF2668
:1002D0007F0036FFFF460100950275088106A102E6
:1002E00009381680FF267F0036FFFF46010075089B
:1002F0008106C0C0C00011241FBECFEFDAE0DEBF10
:10030000CDBF11E0A0E0B1E0ECE5F4E202C0059061
:100310000D92A232B107D9F721E0A2E2B1E001C00B
:100320001D92A138B207E1F70E94EE0A0C942C123C
:1003300067CE84B18F6084B985B18F6085B9559AD5
:100340005D9A80B38F7080BB81B3806F81BB08954D
:1003500028980895289A089595B181E0892785B94C
:1003600008958111F5CFF6CF5D9808955D9A0895AF
:100370008111FACFFBCF8091320181110AC0109216
:100380006F0110926E011092710110927001299804
:100390008BC0813079F57F9909C080916E01909171
:1003A0006F01816090936F0180936E017E9909C007
:1003B00080916E0190916F01846090936F018093A2
:1003C0006E017D9909C080916E0190916F018061ED
:1003D00090936F0180936E017C9909C080916E01AA
:1003E00090916F01806490936F0180936E01299AC0
:1003F0002B985AC0823079F57F9909C080916E019F
:1004000090916F01826090936F0180936E017E994D
:1004100009C080916E0190916F01886090936F0187
:1004200080936E017D9909C080916E0190916F015A
:10043000806290936F0180936E017C9909C08091D6
:100440006E0190916F01806890936F0180936E01AF
:100450002B9A2A9829C0833039F57E9909C080915A
:100460006E0190916F01916090936F0180936E0186
:100470007D9909C080916E0190916F019260909377
:100480006F0180936E012A9A80916E0190916F01A5
:1004900090933401809333018091700190917101A8
:1004A0009093360180933501809132018F5F8531C1
:1004B00018F480933201089510923201089581E07A
:1004C00090E00E9416128093240180E090E00E9448
:1004D000161280932301823011F081E001C088E080
:1004E0008093200108956091240181E090E00E94B2
:1004F0001E126091230180E090E00C941E12809106
:100500002301E0913101813079F4AE2FB0E0AD5B91
:10051000BE4F1C9282E08E0F80933101EF5FF0E0BE
:10052000ED5BFE4F83E01DC08250AE2FB0E0AD5BAF
:10053000BE4F823060F48CE28C9382E08E0F809309
:100540003101EF5FF0E0ED5BFE4F88E00AC01C92E6
:1005500082E08E0F80933101EF5FF0E0ED5BFE4FA4
:1005600086E08083089584B7877F84BF0FB6F894B0
:10057000A89580916000886180936000109260006F
:100580000FBE90E080E80FB6F894809361009093DE
:1005900061000FBECEDEDCDE0E949F0DDBCE089533
:1005A000089580E191E00E941D1180E091E00E9499
:1005B0001D11E2EEF0E0808184608083089580E187
:1005C00091E00E94E80F80E091E00C94E80F8091A8
:1005D0001E0190911F01009729F0019790931F0130
:1005E00080931E0180910E0190910F01009729F0D8
:1005F000019790930F0180930E0108952F923F92DF
:100600004F925F926F927F928F929F92AF92BF9222
:10061000CF92DF92EF92FF920F931F93CF93DF93CE
:10062000CDB7DEB768970FB6F894DEBF0FBECDBF6B
:100630009C8B8B8B19011A8B098B80912B019091CC
:100640002C01009771F00196843F21E0920728F475
:1006500090932C0180932B0104C010922C011092D6
:100660002B0180913101843108F02FC610912F01A8
:1006700040913301509134015C874B875A83498301
:1006800060913501709136017E876D877C836B8325
:1006900072DE2091330130913401C90188279370B3
:1006A0008115924089F0809135019091360188271B
:1006B00093708115924041F010922F0110922E01FB
:1006C00010923001109273014B855C852417350719
:1006D00078F091E080E040913501509136016D85D0
:1006E0007E854617570708F090E09D838E8304C0EF
:1006F00041E050E05E834D836B857C856217730714
:1007000078F091E080E040913501509136016D859F
:100710007E856417750708F090E09F83888704C082
:1007200041E050E058874F8380912B0190912C013C
:100730004091290150912A014817590798F4409196
:100740002501509126012417350761F440913501A8
:10075000509136012091270130912801421753070B
:1007600009F42BC7412C512CBE016F5F7F4F7A8754
:10077000698745E251E0588B4F87E12CF12CBB246F
:10078000B39459855D8B6A856E8BDD24DA940CE217
:1007900064E0C62E4E2DE985FA8521913191FA87C4
:1007A000E987ED89FE898B2D8E25E80FF11DE80F75
:1007B000F11D808091806F817885672B61F0E11455
:1007C000F10411F0B092210181E090E090932C01AE
:1007D00080932B016DC56D817E81672B21F44114BF
:1007E000510409F465C580912101882309F460C58D
:1007F00080912201882391F190E001978E159F0549
:1008000069F510922201C901807C9E7F892BE9F550
:10081000C9019927A90143705527452B29F0422F7B
:1008200043704150409324018C739927009771F0D5
:100830009595879595958795815080932301823072
:1008400011F081E001C088E08093200130FF1DC0DD
:1008500027733327232BC9F046DE17C0EF85F889AD
:10086000808191818939F2E09F0729F4263652E090
:10087000350769F407C08636924049F4293972E099
:10088000370729F44F5F4093220166DDE3C4211549
:1008900082E0380719F020383105A9F4809124014D
:1008A0008111D8C481E02038310509F080E09091B1
:1008B0002D01981709F4CEC4888F21DE888D80938E
:1008C0002D014FDDC7C4C901882793708115E2E06F
:1008D0009E0709F08DC3A22F203879F480912E0154
:1008E000813019F480937201B5C4E0913101AE2FCB
:1008F000B0E0AD5BBE4F88E285C3203411F02334F5
:1009000041F4E0913101AE2FB0E0AD5BBE4F8AE221
:1009100079C3233841F4E0913101AE2FB0E0AD5BF3
:10092000BE4F0C9370C3233C41F4E0913101AE2FD4
:10093000B0E0AD5BBE4F88E565C3203C41F4E0917B
:100940003101AE2FB0E0AD5BBE4F89E25BC3C901A0
:100950009927A901417455274134510509F074C004
:10096000AC0144715527452B09F46EC0AC014A7A9D
:100970005527452B09F068C02135D1F4809131010C
:10098000E82FF0E0ED5BFE4F9AE29083E1E0E80FA4
:10099000F0E0ED5BFE4F1082E2E0E80FF0E0ED5B8F
:1009A000FE4F908394E0980F909331018D5F4AC081
:1009B0002534A1F4E0913101AE2FB0E0AD5BBE4F24
:1009C0008AE28C9382E08E0F80933101EF5FF0E03A
:1009D000ED5BFE4F8091200180833CC4253509F0FA
:1009E00039C480913101E82FF0E0ED5BFE4F9AE2CF
:1009F0009083E1E0E80FF0E0ED5BFE4F1082E2E073
:100A0000E80FF0E0ED5BFE4F9083E3E0E80FF0E0ED
:100A1000ED5BFE4F1082E4E0E80FF0E0ED5BFE4F8F
:100A20009083E5E0E80FF0E0ED5BFE4F1082E6E03A
:100A3000E80FF0E0ED5BFE4F908398E0980F909305
:100A40003101895FE82F00C4AC01407C5527BC010F
:100A500063707727403C510549F5FC01EC73FF2793
:100A6000309721F16330710509F1F595E795F5951A
:100A7000E795E55DFE4FE491EE2309F4EBC3AD3F4E
:100A800089F0AE3F89F06130710521F48091200139
:100A9000182B05C06230710509F098C214601092DD
:100AA0002F0194C2E8E492C2E6E490C2633071057B
:100AB00009F05FC0FC01EC73FF27309709F421C1F6
:100AC000F595E795F595E795403C510559F040348B
:100AD000510551F4812F8D7F39F41091200110922E
:100AE0002F0103C081E001C080E02FE0829FE00D74
:100AF000F11D1124E65CFE4FE491EE2349F1111142
:100B000016C0EE3299F0E13381F0E83331F4809190
:100B10002D01813061F4E1E309C0E73341F48091B4
:100B20002D01813021F4E8E301C0E5E212E080917B
:100B30003101A82FB0E0AD5BBE4FEC9392E0980F6F
:100B4000909331018F5FE82FF0E0ED5BFE4F108353
:100B50004038510509F07EC3E0913101AE2FB0E07D
:100B6000AD5BBE4F0C9382E08E0F80933101EF5F3F
:100B70006BC36115710509F448C0FC01EC73FF27D4
:100B8000EF2B09F048C04115510509F4BAC0623095
:100B9000710549F4FA0185E0F595E7958A95E1F745
:100BA000EC52FE4F0EC0A13419F4E6EBF1E009C09F
:100BB000A13C19F4E0EEF1E004C0A13819F4E4EE30
:100BC000F1E0A490AA2009F445C3812F8D7F11F490
:100BD0001091200110922F01E0913101AE2FB0E071
:100BE000AD5BBE4FAC92A1E0AE0FB0E0AD5BBE4FCF
:100BF0001C93A2E0AE0FB0E0AD5BBE4F1C9284E050
:100C00008E0F80933101ED5FEEC1452B09F479C061
:100C1000AC014C735527452B09F473C0E22FE695C0
:100C2000E695EF71F0E0EE0FFF1FEA56FE4FE491FC
:100C3000812F90E08D7F672B09F5EE23F9F0892B4A
:100C400011F41091200110922F0180913101A82FF1
:100C5000B0E0AD5BBE4FEC93E1E0E80FF0E0ED5BA0
:100C6000FE4F1083E2E0E80FF0E0ED5BFE4F1082F4
:100C700094E0980F909331018D5FB4C1892B11F4EA
:100C80001091200110922F01A03741F4E091310121
:100C9000AE2FB0E0AD5BBE4F86E3B4C1A13741F4E7
:100CA000E0913101AE2FB0E0AD5BBE4F83E3AAC14E
:100CB000AC3441F4E0913101AE2FB0E0AD5BBE4FFA
:100CC0008FE2A0C1AD3441F4E0913101AE2FB0E02C
:100CD000AD5BBE4F80E396C1AC3741F4E09131018A
:100CE000AE2FB0E0AD5BBE4F84E38CC1AD3709F0F1
:100CF000B1C2E0913101AE2FB0E0AD5BBE4F85E3F4
:100D000081C1FC01EF73FF27E85AFE4FE491E11126
:100D1000DAC0A13041F481E090912E01911180E080
:100D200080932E0197C2A13229F4B0922E01B09285
:100D3000300190C2AE31C1F480913101E82FF0E072
:100D4000ED5BFE4F108292E0980F909331018F5F20
:100D5000E82FF0E0ED5BFE4F85E08083892809F005
:100D600078C280932F0175C2AC32A1F4E0913101B9
:100D7000AE2FB0E0AD5BBE4F8BE28C9382E08E0F66
:100D800080933101EF5FF0E0ED5BFE4FC082C092D7
:100D90002F016BC0AC31A1F4E0913101AE2FB0E076
:100DA000AD5BBE4F8BE28C9382E08E0F809331015E
:100DB000EF5FF0E0ED5BFE4FB082B0922F0181C09B
:100DC000AE3041F4E0913101AE2FB0E0AD5BBE4FEB
:100DD0008BE46BC0AD3041F4E0913101AE2FB0E057
:100DE000AD5BBE4F8EE461C0AA3141F4E0913101A8
:100DF000AE2FB0E0AD5BBE4F89E457C0AA3341F4DB
:100E0000E0913101AE2FB0E0AD5BBE4F89E409C087
:100E1000A533B1F4E0913101AE2FB0E0AD5BBE4F30
:100E20008CE48C9382E08E0F80933101EF5FF0E0D1
:100E3000ED5BFE4F82E0808310922F0112E00AC228
:100E4000A433A9F4E0913101AE2FB0E0AD5BBE4F09
:100E500082E58C9382E08E0F80933101EF5FF0E0AA
:100E6000ED5BFE4FC08210922F0114E0F3C1A83356
:100E700041F4E0913101AE2FB0E0AD5BBE4F81E5B2
:100E8000E8CFA63141F4E0913101AE2FB0E0AD5B87
:100E9000BE4F80E50AC0A53209F0DCC1E091310106
:100EA000AE2FB0E0AD5BBE4F8FE48C9382E08E0F2F
:100EB00080933101EF5FF0E0ED5BFE4FB082109266
:100EC0002F0111E0C7C180E28E0F883070F4E82F47
:100ED00081E090E001C0880FEA95EAF71827892899
:100EE00009F0B8C110932F01B5C1E114F10479F4F0
:100EF000E03541F0EF3441F0EA3441F0ED3439F4BB
:100F0000EAE405C0EFE403C0E0E501C0EDE441140C
:100F1000510411F49AE001C094E020913001213095
:100F200031F491E04114510421F481E003C084E1E3
:100F300001C08AE030912E01313009F047C0E03520
:100F400011F4819502C0EF3419F480936B0182C1D2
:100F5000E23511F4819502C0E13519F480936C01FA
:100F600079C1EE3411F4919502C0EB3419F49093E9
:100F70006D0170C1EA3429F4F1E0EF16F10459F47F
:100F800005C0ED3471F4E114F10429F4809173018A
:100F900081708B250FC08091730181FD0AC082E0B2
:100FA00009C0EB3251F48091730182FD02C084E0EC
:100FB00001C080E0809373014DC1EC3439F481E0CD
:100FC000213009F480E08093300144C180913101E7
:100FD000A82FB0E0AD5BBE4FEC9392E0980F9093DA
:100FE00031018F5FE82FF0E0ED5BFE4F108332C1DF
:100FF000243D310571F4E0913101AE2FB0E0AD5BDD
:10100000BE4F8BE28C9382E08E0F80933101EF5FB5
:10101000EACF243D41E0340789F5E0913101AE2F5C
:10102000B0E0AD5BBE4F0C93A1E0AE0FB0E0AD5BA6
:10103000BE4F1C92A2E0AE0FB0E0AD5BBE4F0C9372
:10104000A3E0AE0FB0E0AD5BBE4F1C92A4E0AE0FCC
:10105000B0E0AD5BBE4F0C93A5E0AE0FB0E0AD5B72
:10106000BE4F1C92A6E0AE0FB0E0AD5BBE4F0C933E
:1010700088E08E0F80933101E95FE6C0203851E0AF
:10108000350741F4E0913101AE2FB0E0AD5BBE4FCA
:101090000C93C9C0390163E066227622490170E8E9
:1010A00087229924A9014C775527452B09F43FC085
:1010B000422F469546954F7D50912D01E42FF0E04B
:1010C000EE0FFF1F552311F0319701C03297E856FC
:1010D000FE4F6491662311F1613E59F18114910430
:1010E00039F0A90143705270452B11F442E001C060
:1010F00040E0603209F412E0E0913101AE2FB0E03F
:10110000AD5BBE4F6C9352E05E0F50933101EF5FC9
:10111000F0E0ED5BFE4F412B408309C04C3109F4F8
:101120005BC1433109F45AC14F3109F459C140E060
:1011300001C042E0672809F48DC0E6E096958795E6
:10114000EA95E1F72370282B822F8C708C3009F4FC
:101150002B7080912D01E22FF0E0EE0FFF1F88230E
:1011600011F0319701C03297EA52FE4FE491E1113C
:1011700011C281114FC02A30B1F4E0913101AE2F7C
:10118000B0E0AD5BBE4F92E19C93A1E0AE0FB0E04A
:10119000AD5BBE4F1C92A2E0AE0FB0E0AD5BBE4FA8
:1011A00088E18C932EC02730A9F4E0913101AE2F55
:1011B000B0E0AD5BBE4FF8E0FC93A1E0AE0FB0E055
:1011C000AD5BBE4F1C92A2E0AE0FB0E0AD5BBE4F78
:1011D000CC9217C02930F1F4E0913101AE2FB0E08C
:1011E000AD5BBE4F2CE02C93A1E0AE0FB0E0AD5B49
:1011F000BE4F1C92A2E0AE0FB0E0AD5BBE4F42E12D
:101200004C9384E08E0F80933101ED5FF0E0ED5B55
:10121000FE4F10828928F1F0E0913101AE2FB0E04D
:10122000AD5BBE4FDC92A1E0AE0FB0E0AD5BBE4F58
:101230001C92A2E0AE0FB0E0AD5BBE4F0C9384E019
:101240008E0F80933101ED5FF0E0ED5BFE4F108279
:1012500001C015E0E114F10459F16D817E81672B25
:1012600011F180912B0190912C019C0136952795CD
:10127000820F931F8233910510F482E390E09093E4
:101280002A01809329014B855C8550932601409368
:1012900025016D857E85709328016093270110924A
:1012A0002C0110922B014114510411F410922101D0
:1012B0004F8558894E5F5F4F588B4F87EA94EF28D0
:1012C00021F0EE24E394F12C65CA6B897C8960518E
:1012D000714009F049C0809131018823B9F18091B2
:1012E00043018F3F09F480E0F10182838091440142
:1012F00080838091430190914501891302C08F3F03
:1013000041F480913101282F30E02150310990E0E3
:101310000DC08FEF809343011DC0ED5BFE4F5281E6
:10132000508343814183552339F09E5FE92FF0E0DC
:10133000E217F30794F302C04111F7CF10926A014C
:101340001092690182508093310104C080912F0175
:10135000F101808381E0F1019081911101C080E071
:1013600007D888E090E01AC080916B01F101818379
:1013700080916C01828380916D01838310926B0157
:1013800010926C0110926D01909172018091730125
:10139000892B80831092720184E090E0E989FA89B8
:1013A0009183808381E068960FB6F894DEBF0FBE0C
:1013B000CDBFDF91CF911F910F91FF90EF90DF9004
:1013C000CF90BF90AF909F908F907F906F905F90E5
:1013D0004F903F902F90089541E003C042E001C03C
:1013E00043E023703270232B19F48114910409F522
:1013F00081E068167104F9F092E069167104E9F071
:10140000E1E06E167E06D9F0F2E06F16F1E07F069D
:10141000C1F0611423E07206B1F061E0661663E08A
:10142000760699F072E0671673E0770681F488E03B
:101430000FC081E00DC082E00BC083E009C084E0F2
:1014400007C085E005C086E003C087E001C080E0FA
:10145000880F880F513009F48E5F50E041505109D8
:1014600090E064E2649F9001659F300D1124FC01BF
:10147000E20FF31FE054FF4F4491820F931FFC01D2
:10148000EF53FF4F8491823041F4E0913101AE2F50
:10149000B0E0AD5BBE4F4C9368C0833099F4E091EF
:1014A0003101AE2FB0E0AD5BBE4F4C9382E08E0FAA
:1014B00080933101EF5FF0E0ED5BFE4F82E08083CF
:1014C00012E05CC09CEF980F923008F057C0E0919A
:1014D0003101AE2FB0E0AD5BBE4FDC9292E09E0FCB
:1014E00090933101EF5FF0E0ED5BFE4F10824F8B88
:1014F000888F05D890913101E92FF0E0ED5BFE4F28
:10150000D082E1E0E90FF0E0ED5BFE4F1082E2E017
:10151000E90FF0E0ED5BFE4F4F89408324E0290F97
:10152000E3E0E90FF0E0888D853011F080E001C044
:1015300082E0ED5BFE4F8083E22FF0E0ED5BFE4F3B
:10154000D08286E0890F809331019B5FE92FF0E024
:10155000ED5BFE4F10820E947F02E0913101AE2FC1
:10156000B0E0AD5BBE4FDC9282E08E0F8093310124
:10157000EF5FF0E0ED5BFE4F108210E0611481E060
:10158000780609F449CE892809F464CE672809F45D
:1015900061CE42CE80913101A82FB0E0AD5BBE4F4D
:1015A000EC9392E0980F909331018F5FE82FF0E079
:1015B000ED5BFE4F412B40832DCE9C0143E03695E1
:1015C00027954A95E1F7821B930B90932C0180930A
:1015D0002B0144244394512CC7C808950E94B302A0
:1015E00078940E945F0280E191E03AD680E091E039
:1015F00037D6D4D4F8CF292F332723303105C1F083
:101600005CF42130310579F022303105A1F58BE30E
:1016100090E02AE132E03BC021323105F1F0223284
:10162000310511F128C082E190E025E532E02FC0BC
:1016300099278130910541F08230910541F0892B45
:10164000D1F4E6E1F2E005C0E6E0F2E002C0ECEE43
:10165000F1E0849190E09F011AC089E090E0662358
:1016600079F025E432E013C0662369F08FE490E05E
:1016700026EA32E00CC080E090E020E030E007C0D5
:101680002CE232E004C08FE390E027E632E0FA017A
:10169000318320830895CF92DF92EF92FF920F93D0
:1016A0001F93CF93DF93EC018B017A01D6D1811187
:1016B00033C0E114F10439F0F70180819181081BF6
:1016C000190BC80FD91FC12CD12C0115110519F107
:1016D0008091E80085FD16C08091E8008E778093A8
:1016E000E8005CD4E114F10449F0F70180819181B4
:1016F000C80ED91ED182C08285E00EC0AED188232B
:1017000021F30AC089918093F10001501109FFEF84
:10171000CF1ADF0ADACF80E0DF91CF911F910F91CE
:10172000FF90EF90DF90CF90089520917F0130914E
:1017300080012617370748F06115710539F42091AB
:10174000E8002E772093E80001C0B90140E0611560
:101750007105A9F120917801222309F441C02530B7
:1017600009F440C02091E80023FD38C02091E80032
:1017700022FD2EC02091E80020FFE9CF4091F30028
:101780002091F20030E0342BFC01CF01611571058E
:1017900059F02830310540F481918093F100615077
:1017A00071092F5F3F4FF1CF41E02830310509F03B
:1017B00040E02091E8002E772093E800C8CF411147
:1017C000C9CF06C080917801882351F0853051F04F
:1017D0008091E80082FFF6CF80E0089581E00895CF
:1017E00082E0089583E008956115710529F4209140
:1017F000E8002B772093E800FC016115710541F1A9
:1018000080917801882361F1853061F18091E80051
:1018100083FD24C08091E80082FFEFCF2091F30088
:101820008091F20090E0922B892B31F08091F100B1
:1018300081936150710991F78091E8008B778093D3
:10184000E800DBCF80917801882351F0853051F09A
:101850008091E80080FFF6CF80E0089581E0089550
:1018600082E0089583E0089520917F013091800106
:101870002617370748F06115710539F42091E80003
:101880002E772093E80001C0B901FC0120E061152A
:10189000710591F180917801882309F43EC085306B
:1018A00009F43DC08091E80083FD35C08091E800D7
:1018B00082FD2BC08091E80080FFE9CF2091F300EA
:1018C0008091F20090E0922B6115710559F08830FB
:1018D000910540F424912093F100319661507109F3
:1018E0000196F2CF21E0089709F020E08091E8000E
:1018F0008E778093E800CBCF2111CCCF06C08091AA
:101900007801882351F0853051F08091E80082FF02
:10191000F6CF80E0089581E0089582E0089583E0A5
:101920000895982F973058F59093E900981739F05B
:101930007091EC002091ED005091F00003C0242F35
:10194000762F50E021FF19C03091EB003E7F30939D
:10195000EB003091ED003D7F3093ED003091EB00D6
:1019600031603093EB007093EC002093ED005093C6
:10197000F0002091EE0027FF07C09F5FD3CF8F704C
:101980008093E90081E0089580E00895EF92FF924E
:101990000F931F93CF93DF93E62EEC018C010C5F26
:1019A0001F4FF12CFE1491F15881552351F1F8018C
:1019B000208169817A8131979081852F8F7087305E
:1019C00010F080E024C0223010F442E001C046E074
:1019D000E8E0F0E020E0E617F70720F42F5FEE0FD5
:1019E000FF1FF9CF2295207F422BF0E49F9F9001AB
:1019F0001124551F5527551F652F622B92DF882311
:101A000001F3F39425960B5F1F4FCCCF81E0DF915C
:101A1000CF911F910F91FF90EF90089580917901E0
:101A200087FF11C08091E80082FD05C08091780198
:101A30008111F8CF11C08091E8008B770BC08091A5
:101A40007801882349F08091E80080FFF8CF8091E9
:101A5000E8008E778093E80008952091E4003091AB
:101A6000E50095E64091EC00842F817040FF22C094
:101A70008091E80080FD1CC080917801882391F05E
:101A8000853091F08091EB0085FD10C04091E4001D
:101A90005091E5004217530729F39A01915011F72D
:101AA00084E0089582E0089583E0089581E0089538
:101AB00080E008954091E80042FFDECF08950F9343
:101AC0001F93CF93DF934BD052D0C8EDD0E08881E5
:101AD0008F77888388818068888388818F7D8883D9
:101AE00019BC109278011092740110927601109234
:101AF000750100EE10E0F80180818B7F8083888182
:101B00008160888342E060E080E00BDFE1EEF0E09E
:101B100080818E7F8083E2EEF0E08081816080832F
:101B2000808188608083F80180818E7F80838881B6
:101B300080618883DF91CF911F910F910895E8ED27
:101B4000F0E080818F7E8083E7EDF0E0808181602E
:101B5000808384E082BF81E080937701B0CFE8ED9D
:101B6000F0E080818E7F80831092E20008951092D1
:101B7000DA001092E10008951F920F920FB60F92B3
:101B800011242F933F934F935F936F937F938F9382
:101B90009F93AF93BF93EF93FF938091E10082FFF8
:101BA0000BC08091E20082FF07C08091E1008B7F33
:101BB0008093E1000E94E7028091DA0080FF1FC05D
:101BC0008091D80080FF1BC08091DA008E7F8093C7
:101BD000DA008091D90080FF0DC080E189BD82E1EB
:101BE00089BD09B400FEFDCF81E0809378010E9499
:101BF000CF0205C019BC109278010E94D0028091DA
:101C0000E10080FF18C08091E20080FF14C0809145
:101C1000E2008E7F8093E2008091E20080618093F9
:101C2000E2008091D80080628093D80019BC85E0E2
:101C300080937801B2D18091E10084FF2DC0809122
:101C4000E20084FF29C080E189BD82E189BD09B439
:101C500000FEFDCF8091D8008F7D8093D8008091C9
:101C6000E1008F7E8093E1008091E2008F7E80937F
:101C7000E2008091E20081608093E2008091740133
:101C8000811106C08091E30087FD02C081E001C0A0
:101C900084E08093780181D18091E10083FF22C0AC
:101CA0008091E20083FF1EC08091E100877F8093D6
:101CB000E10082E080937801109274018091E1004C
:101CC0008E7F8093E1008091E2008E7F8093E2001E
:101CD0008091E20080618093E20042E060E080E079
:101CE00020DE5BD1FF91EF91BF91AF919F918F91DA
:101CF0007F916F915F914F913F912F910F900FBE08
:101D00000F901F9018951F93CF93DF93CDB7DEB739
:101D1000AA970FB6F894DEBF0FBECDBFE9E7F1E09A
:101D200088E08E0F9091F10091938E13FBCF0E946B
:101D3000DF028091E80083FF18C1809179019091C2
:101D40007A01492F50E04A30510508F00EC1FA01DE
:101D5000EA5AFF4F48C3803881F0823809F005C144
:101D600080917D018F708093E9008091EB0085FB6D
:101D7000882780F91092E90006C080917501909142
:101D80007601911182609091E800977F9093E8002E
:101D90008093F1001092F100C4C0282F2D7F09F02C
:101DA000E4C0882319F0823061F0DFC080917B01AC
:101DB000813009F0DAC0933009F080E08093760139
:101DC0002BC080917B01811127C080917D018F7094
:101DD00009F4CBC08093E9002091EB0020FF1CC0E8
:101DE000933021F48091EB00806214C09091EB005D
:101DF00090619093EB0021E030E0A90102C0440F14
:101E0000551F8A95E2F74093EA001092EA0080910C
:101E1000EB0088608093EB001092E9008091E8006D
:101E2000877F82C08111A1C010917B011F778091B3
:101E3000E3008078812B8093E3008091E800877F26
:101E40008093E800EBDD8091E80080FFFCCF80917B
:101E5000E30080688093E300111102C082E001C0BA
:101E600083E08093780181C08058823008F07DC083
:101E700080917B0190917C018C3D53E0950771F539
:101E800083E08A838AE289834FB7F894DE01139650
:101E900020E03EE051E2E32FF0E050935700E49160
:101EA00020FF03C0E295EF703F5FEF708E2F90E050
:101EB000EA3010F0C79601C0C0968D939D932F5FB6
:101EC000243149F74FBF8091E800877F8093E80075
:101ED0006AE270E0CE01019628DC12C0AE014F5FCD
:101EE0005F4F60917D0187DBBC01892B09F43DC008
:101EF0009091E800977F9093E80089819A81B4DC03
:101F00008091E8008B778093E8002FC0803869F5D6
:101F10008091E800877F8093E8008091740180932E
:101F2000F1008091E8008E778093E80077DD1DC096
:101F300081111BC090917B019230B8F48091E80030
:101F4000877F8093E8009093740168DD809174012D
:101F5000811106C08091E30087FD02C081E001C0CD
:101F600084E0809378010E94D1028091E80083FF91
:101F70000AC08091E800877F8093E8008091EB00A1
:101F800080628093EB00AA960FB6F894DEBF0FBE76
:101F9000CDBFDF91CF911F9108950895CF93809188
:101FA0007801882399F0C091E900CF709091EC00FE
:101FB000892F817090FD80E8C82B1092E9008091F4
:101FC000E80083FDA0DECF70C093E900CF910895B3
:101FD0006F927F928F929F92AF92BF92CF92DF9239
:101FE000EF92FF920F931F93CF93DF9300D01F9236
:101FF000CDB7DEB77C01CDB6DEB68091E80083FFB9
:1020000005C1F701808190E020917D0130917E0132
:102010002817390709F0FAC080917A01833009F452
:102020009CC030F4813071F0823009F4D3C0EEC02E
:102030008A3009F4B7C08B3009F4A0C0893009F0A8
:10204000E5C04EC080917901813A09F0DFC08DB6BC
:102050009EB61A82198280917B0110917C018B833C
:10206000F7018085482F50E08DB79EB7841B950BF4
:102070000FB6F8949EBF0FBE8DBFEDB7FEB7319679
:102080005F0160E070E0CF01CAD14FEF410F8E01D8
:102090000F5F1F4F9501BE016D5F7F4FC7010E940B
:1020A000FE02F70186819781009721F0408550E07C
:1020B000B501ACD11092E9008091E800877F809350
:1020C000E80069817A81C50130DB8091E8008B7777
:1020D0008093E8000FB6F8949EBE0FBE8DBE96C0EA
:1020E00080917901813209F091C0ADB6BEB6009100
:1020F0007F011091800170907B0160907C018DB711
:102100009EB7801B910B0FB6F8949EBF0FBE8DBF7C
:10211000EDB7FEB731964F018091E800877F80933D
:10212000E800B801CF0160DB8091E8008E778093F2
:10213000E80021E0711001C020E030E0021B130B29
:10214000280D391D4FEF460D672DC70146DA0FB632
:10215000F894BEBE0FBEADBE59C080917901813AE0
:1021600009F054C08091E800877F8093E800809157
:10217000E80080FFFCCFF701818540C080917901A4
:10218000813209F043C08091E800877F8093E800A6
:1021900045DC90917B0181E0911101C080E0F70165
:1021A000818734C080917901813281F58091E80086
:1021B000877F8093E80032DC80917B0190917C01E5
:1021C000882736E0969587953A95E1F7F701958748
:1021D00084871CC080917901813AC1F48091E80024
:1021E000877F8093E8008091E80080FFFCCFF701B3
:1021F0008485958596958795969587958093F1002A
:102200008091E8008E778093E80008DC0FB6F894A0
:10221000DEBE0FBECDBE0F900F900F90DF91CF911D
:102220001F910F91FF90EF90DF90CF90BF90AF90F4
:102230009F908F907F906F900895FC01399627E0D2
:10224000DF011D922A95E9F721E0FC01218724EFA7
:1022500031E03587248723E0248361E0019696CB23
:102260004F925F926F927F928F929F92AF92BF92A6
:10227000CF92DF92EF92FF920F931F93CF93DF9352
:1022800000D01F92CDB7DEB77C01ADB6BEB680914F
:102290007801843009F08EC08091E4009091E500CF
:1022A000F701228533852817390709F483C0818116
:1022B0008F708093E9008091E80085FF7BC08DB628
:1022C0009EB6408550E08DB79EB7841B950B0FB628
:1022D000F8949EBF0FBE8DBFEDB7FEB731966F016C
:1022E0001B821A82198260E070E0CF0198D08E01C3
:1022F0000F5F1F4F960140E0BE016D5F7F4FC7012A
:102300000E94FE02482EF70184859585892B51F0A5
:1023100091E080E026853785232B09F090E0092F96
:10232000182F02C000E010E0F7016680778061148A
:10233000710489F049815A81B301C6015AD05524EC
:102340005394892B09F4512CF701408550E0B601D4
:10235000C3015CD001C0512C89819A81892BF1F095
:10236000411004C0511002C0012BC1F0F701848557
:1023700095859787868781818F708093E9008B810F
:1023800081118093F10069817A8140E050E0C601BB
:1023900082D98091E8008E778093E8008091E400F4
:1023A0009091E500F701938782870FB6F8949EBE5F
:1023B0000FBE8DBE0FB6F894BEBE0FBEADBE0F9061
:1023C0000F900F90DF91CF911F910F91FF90EF90A1
:1023D000DF90CF90BF90AF909F908F907F906F9045
:1023E0005F904F900895EE0FFF1F0590F491E02D40
:1023F0000994FB01DC0104C08D910190801921F446
:1024000041505040C8F7881B990B0895FB01DC012F
:1024100002C001900D9241505040D8F70895DC0160
:1024200001C06D9341505040E0F70895F999FECFF7
:1024300092BD81BDF89A992780B50895262FF99904
:10244000FECF1FBA92BD81BD20BD0FB6F894FA9A97
:0C245000F99A0FBE01960895F894FFCF92
:10245C0001830800000137010400000000000000A7
:10246C000081080000013B01080000000000000092
:02247C0001015C
:00000001FF
